{
  "contractName": "EmployeeVerification",
  "abi": [
    {
      "constant": true,
      "inputs": [
        {
          "name": "employeeID",
          "type": "bytes32"
        }
      ],
      "name": "dataAboutEmployee",
      "outputs": [
        {
          "name": "",
          "type": "uint256"
        },
        {
          "name": "",
          "type": "string"
        },
        {
          "name": "",
          "type": "string"
        }
      ],
      "payable": false,
      "stateMutability": "view",
      "type": "function"
    },
    {
      "constant": false,
      "inputs": [
        {
          "name": "employeeID",
          "type": "bytes32"
        }
      ],
      "name": "inputEmployeeId",
      "outputs": [
        {
          "name": "",
          "type": "bool"
        }
      ],
      "payable": false,
      "stateMutability": "nonpayable",
      "type": "function"
    },
    {
      "constant": true,
      "inputs": [
        {
          "name": "",
          "type": "uint256"
        }
      ],
      "name": "candidateList",
      "outputs": [
        {
          "name": "",
          "type": "bytes32"
        }
      ],
      "payable": false,
      "stateMutability": "view",
      "type": "function"
    },
    {
      "constant": false,
      "inputs": [
        {
          "name": "employeeID",
          "type": "bytes32"
        },
        {
          "name": "age",
          "type": "uint256"
        },
        {
          "name": "fName",
          "type": "string"
        },
        {
          "name": "lName",
          "type": "string"
        },
        {
          "name": "role",
          "type": "string"
        },
        {
          "name": "experience",
          "type": "string"
        },
        {
          "name": "comments",
          "type": "string"
        }
      ],
      "name": "inputEmployeeData",
      "outputs": [],
      "payable": false,
      "stateMutability": "nonpayable",
      "type": "function"
    },
    {
      "constant": true,
      "inputs": [
        {
          "name": "candidate",
          "type": "bytes32"
        }
      ],
      "name": "isNewEntry",
      "outputs": [
        {
          "name": "",
          "type": "bool"
        }
      ],
      "payable": false,
      "stateMutability": "view",
      "type": "function"
    },
    {
      "constant": true,
      "inputs": [],
      "name": "getCandidateList",
      "outputs": [
        {
          "name": "",
          "type": "bytes32[]"
        }
      ],
      "payable": false,
      "stateMutability": "view",
      "type": "function"
    }
  ],
  "bytecode": "0x6060604052341561000f57600080fd5b6109cb8061001e6000396000f300606060405260043610610078576000357c0100000000000000000000000000000000000000000000000000000000900463ffffffff1680632633d4891461007d578063aa704c8514610190578063b13c744b146101cf578063be83273a1461020e578063c408f56b1461038d578063fdbc4006146103cc575b600080fd5b341561008857600080fd5b6100a2600480803560001916906020019091905050610436565b604051808481526020018060200180602001838103835285818151815260200191508051906020019080838360005b838110156100ec5780820151818401526020810190506100d1565b50505050905090810190601f1680156101195780820380516001836020036101000a031916815260200191505b50838103825284818151815260200191508051906020019080838360005b83811015610152578082015181840152602081019050610137565b50505050905090810190601f16801561017f5780820380516001836020036101000a031916815260200191505b509550505050505060405180910390f35b341561019b57600080fd5b6101b56004808035600019169060200190919050506105e5565b604051808215151515815260200191505060405180910390f35b34156101da57600080fd5b6101f06004808035906020019091905050610637565b60405180826000191660001916815260200191505060405180910390f35b341561021957600080fd5b61038b60048080356000191690602001909190803590602001909190803590602001908201803590602001908080601f0160208091040260200160405190810160405280939291908181526020018383808284378201915050505050509190803590602001908201803590602001908080601f0160208091040260200160405190810160405280939291908181526020018383808284378201915050505050509190803590602001908201803590602001908080601f0160208091040260200160405190810160405280939291908181526020018383808284378201915050505050509190803590602001908201803590602001908080601f0160208091040260200160405190810160405280939291908181526020018383808284378201915050505050509190803590602001908201803590602001908080601f0160208091040260200160405190810160405280939291908181526020018383808284378201915050505050509190505061065b565b005b341561039857600080fd5b6103b2600480803560001916906020019091905050610756565b604051808215151515815260200191505060405180910390f35b34156103d757600080fd5b6103df6107b6565b6040518080602001828103825283818151815260200191508051906020019060200280838360005b83811015610422578082015181840152602081019050610407565b505050509050019250505060405180910390f35b6000610440610818565b610448610818565b60008085600019166000191681526020019081526020016000206000015460008086600019166000191681526020019081526020016000206001016000808760001916600019168152602001908152602001600020600201818054600181600116156101000203166002900480601f0160208091040260200160405190810160405280929190818152602001828054600181600116156101000203166002900480156105355780601f1061050a57610100808354040283529160200191610535565b820191906000526020600020905b81548152906001019060200180831161051857829003601f168201915b50505050509150808054600181600116156101000203166002900480601f0160208091040260200160405190810160405280929190818152602001828054600181600116156101000203166002900480156105d15780601f106105a6576101008083540402835291602001916105d1565b820191906000526020600020905b8154815290600101906020018083116105b457829003601f168201915b505050505090509250925092509193909250565b60006105f082610756565b1561062d5760018054806001018281610609919061082c565b91600052602060002090016000849091909150906000191690555060019050610632565b600090505b919050565b60018181548110151561064657fe5b90600052602060002090016000915090505481565b610663610858565b60c060405190810160405280888152602001878152602001868152602001858152602001848152602001838152509050806000808a600019166000191681526020019081526020016000206000820151816000015560208201518160010190805190602001906106d49291906108ad565b5060408201518160020190805190602001906106f19291906108ad565b50606082015181600301908051906020019061070e9291906108ad565b50608082015181600401908051906020019061072b9291906108ad565b5060a08201518160050190805190602001906107489291906108ad565b509050505050505050505050565b600080600090505b6001805490508110156107ab57826000191660018281548110151561077f57fe5b90600052602060002090015460001916141561079e57600091506107b0565b808060010191505061075e565b600191505b50919050565b6107be61092d565b600180548060200260200160405190810160405280929190818152602001828054801561080e57602002820191906000526020600020905b815460001916815260200190600101908083116107f6575b5050505050905090565b602060405190810160405280600081525090565b815481835581811511610853578183600052602060002091820191016108529190610941565b5b505050565b60c06040519081016040528060008152602001610873610966565b8152602001610880610966565b815260200161088d610966565b815260200161089a610966565b81526020016108a7610966565b81525090565b828054600181600116156101000203166002900490600052602060002090601f016020900481019282601f106108ee57805160ff191683800117855561091c565b8280016001018555821561091c579182015b8281111561091b578251825591602001919060010190610900565b5b509050610929919061097a565b5090565b602060405190810160405280600081525090565b61096391905b8082111561095f576000816000905550600101610947565b5090565b90565b602060405190810160405280600081525090565b61099c91905b80821115610998576000816000905550600101610980565b5090565b905600a165627a7a7230582017bb2f04f236d37c11ce64acf7bf246ce44467407e2b15b67e4efa9d2b3a6b7a0029",
  "source": "pragma solidity ^0.4.0;\n\ncontract EmployeeVerification {\n\n    struct Employee {\n        uint age;\n        string fName;\n        string lName;\n        string role;\n        string experience;\n        string comments;\n    }\n\n    mapping (bytes32 => Employee) employeeData;\n    bytes32[] public candidateList;\n\n    function dataAboutEmployee(bytes32 employeeID) view public returns (uint, string, string) {\n        return (employeeData[employeeID].age, employeeData[employeeID].fName, employeeData[employeeID].lName);\n    }\n\n    function inputEmployeeData(bytes32 employeeID, uint age, string fName, string lName, string role, string experience, string comments) public {\n        var newEmployee = Employee(age, fName, lName, role, experience, comments);\n        employeeData[employeeID] = (newEmployee);\n    }\n\n\n    function inputEmployeeId(bytes32 employeeID) public returns (bool) {\n        if(isNewEntry(employeeID)) {\n          candidateList.push(employeeID);\n          return true;\n        }\n        return false;\n    }\n\n    function isNewEntry(bytes32 candidate) view public returns (bool) {\n        for(uint i = 0; i < candidateList.length; i++) {\n            if (candidateList[i] == candidate) {\n                return false;\n            }\n        }\n        return true;\n    }\n\n    function getCandidateList() constant public returns (bytes32[]) {\n        return candidateList;\n    }\n}\n",
  "sourcePath": "/home/user/employeeVerification/contracts/EmployeeVerification.sol",
  "compiler": {
    "name": "solc",
    "version": "0.4.18+commit.9cf6e910.Emscripten.clang"
  },
  "schemaVersion": "1.0.1",
  "updatedAt": "2017-12-08T04:42:07.095Z"
}